{
    "_format": "hh-sol-artifact-1",
    "contractName": "DaoVote",
    "sourceName": "contracts/DaoVote.sol",
    "abi": [
        {
            "inputs": [
                {
                    "internalType": "address",
                    "name": "nftContract",
                    "type": "address"
                }
            ],
            "stateMutability": "payable",
            "type": "constructor"
        },
        {
            "stateMutability": "payable",
            "type": "fallback"
        },
        {
            "inputs": [
                {
                    "internalType": "address",
                    "name": "_prospect",
                    "type": "address"
                }
            ],
            "name": "createProposal",
            "outputs": [
                {
                    "internalType": "uint256",
                    "name": "",
                    "type": "uint256"
                }
            ],
            "stateMutability": "nonpayable",
            "type": "function"
        },
        {
            "inputs": [
                {
                    "internalType": "uint256",
                    "name": "_proposalId",
                    "type": "uint256"
                }
            ],
            "name": "executeProposal",
            "outputs": [],
            "stateMutability": "nonpayable",
            "type": "function"
        },
        {
            "inputs": [
                {
                    "internalType": "address",
                    "name": "",
                    "type": "address"
                }
            ],
            "name": "members",
            "outputs": [
                {
                    "internalType": "uint256",
                    "name": "joinedAt",
                    "type": "uint256"
                }
            ],
            "stateMutability": "view",
            "type": "function"
        },
        {
            "inputs": [],
            "name": "numProposals",
            "outputs": [
                {
                    "internalType": "uint256",
                    "name": "",
                    "type": "uint256"
                }
            ],
            "stateMutability": "view",
            "type": "function"
        },
        {
            "inputs": [
                {
                    "internalType": "address",
                    "name": "",
                    "type": "address"
                },
                {
                    "internalType": "address",
                    "name": "from",
                    "type": "address"
                },
                {
                    "internalType": "uint256",
                    "name": "tokenId",
                    "type": "uint256"
                },
                {
                    "internalType": "bytes",
                    "name": "",
                    "type": "bytes"
                }
            ],
            "name": "onERC721Received",
            "outputs": [
                {
                    "internalType": "bytes4",
                    "name": "",
                    "type": "bytes4"
                }
            ],
            "stateMutability": "nonpayable",
            "type": "function"
        },
        {
            "inputs": [
                {
                    "internalType": "uint256",
                    "name": "",
                    "type": "uint256"
                }
            ],
            "name": "proposals",
            "outputs": [
                {
                    "internalType": "address",
                    "name": "prospect",
                    "type": "address"
                },
                {
                    "internalType": "uint256",
                    "name": "deadline",
                    "type": "uint256"
                },
                {
                    "internalType": "uint256",
                    "name": "yayVotes",
                    "type": "uint256"
                },
                {
                    "internalType": "uint256",
                    "name": "nayVotes",
                    "type": "uint256"
                },
                {
                    "internalType": "bool",
                    "name": "executed",
                    "type": "bool"
                }
            ],
            "stateMutability": "view",
            "type": "function"
        },
        {
            "inputs": [],
            "name": "quit",
            "outputs": [],
            "stateMutability": "nonpayable",
            "type": "function"
        },
        {
            "inputs": [
                {
                    "internalType": "uint256",
                    "name": "",
                    "type": "uint256"
                }
            ],
            "name": "tokenLockedUp",
            "outputs": [
                {
                    "internalType": "bool",
                    "name": "",
                    "type": "bool"
                }
            ],
            "stateMutability": "view",
            "type": "function"
        },
        {
            "inputs": [],
            "name": "totalVotingPower",
            "outputs": [
                {
                    "internalType": "uint256",
                    "name": "",
                    "type": "uint256"
                }
            ],
            "stateMutability": "view",
            "type": "function"
        },
        {
            "inputs": [
                {
                    "internalType": "uint256",
                    "name": "_proposalId",
                    "type": "uint256"
                },
                {
                    "internalType": "enum DaoVote.VoteType",
                    "name": "_vote",
                    "type": "uint8"
                }
            ],
            "name": "voteOnProposal",
            "outputs": [],
            "stateMutability": "nonpayable",
            "type": "function"
        },
        {
            "stateMutability": "payable",
            "type": "receive"
        }
    ],
    "bytecode": "0x6080604052604051610c33380380610c3383398101604081905261002291610047565b600080546001600160a01b0319166001600160a01b0392909216919091179055610075565b600060208284031215610058578081fd5b81516001600160a01b038116811461006e578182fd5b9392505050565b610baf806100846000396000f3fe60806040526004361061008f5760003560e01c8063400e394911610056578063400e3949146101dd578063671b3793146101f3578063ba2e28b114610209578063efafb22e14610249578063fc2b8cc31461026957005b8063013cf08b1461009857806307eecaf51461012957806308ae4b0c146101575780630d61b51914610184578063150b7a02146101a457005b3661009657005b005b3480156100a457600080fd5b506100f06100b3366004610a7e565b6001602081905260009182526040909120805491810154600282015460038301546004909301546001600160a01b03909416939192909160ff1685565b604080516001600160a01b03909616865260208601949094529284019190915260608301521515608082015260a0015b60405180910390f35b34801561013557600080fd5b5061014961014436600461096d565b61027e565b604051908152602001610120565b34801561016357600080fd5b5061014961017236600461096d565b60026020526000908152604090205481565b34801561019057600080fd5b5061009661019f366004610a7e565b61031b565b3480156101b057600080fd5b506101c46101bf3660046109a5565b61046c565b6040516001600160e01b03199091168152602001610120565b3480156101e957600080fd5b5061014960045481565b3480156101ff57600080fd5b5061014960055481565b34801561021557600080fd5b50610239610224366004610a7e565b60036020526000908152604090205460ff1681565b6040519015158152602001610120565b34801561025557600080fd5b50610096610264366004610a96565b61060b565b34801561027557600080fd5b50610096610774565b336000908152600260205260408120600101546102b65760405162461bcd60e51b81526004016102ad90610ac8565b60405180910390fd5b600454600090815260016020526040902080546001600160a01b0319166001600160a01b0384161781556102eb426078610aee565b60018201556004805490600061030083610b1d565b919050555060016004546103149190610b06565b9392505050565b3360009081526002602052604090206001015461034a5760405162461bcd60e51b81526004016102ad90610ac8565b6000818152600160208190526040909120908101544210156103a05760405162461bcd60e51b815260206004820152600f60248201526e1050d512559157d41493d413d4d053608a1b60448201526064016102ad565b600481015460ff16156103e85760405162461bcd60e51b815260206004820152601060248201526f1053149150511657d1561150d555115160821b60448201526064016102ad565b60048101805460ff19166001179055600381015460028201541115610468576000548154604051631c77fab560e01b81526001600160a01b039182166004820152911690631c77fab590602401600060405180830381600087803b15801561044f57600080fd5b505af1158015610463573d6000803e3d6000fd5b505050505b5050565b600080546040516331a9108f60e11b81526004810185905230916001600160a01b031690636352211e9060240160206040518083038186803b1580156104b157600080fd5b505afa1580156104c5573d6000803e3d6000fd5b505050506040513d601f19601f820116820180604052508101906104e99190610989565b6001600160a01b03161461052b5760405162461bcd60e51b81526020600482015260096024820152684d414c4943494f555360b81b60448201526064016102ad565b60008381526003602052604090205460ff16156105795760405162461bcd60e51b815260206004820152600c60248201526b1053149150511657d554d15160a21b60448201526064016102ad565b6000838152600360209081526040808320805460ff191660019081179091556001600160a01b03881684526002909252909120908101546105b8574281555b600580549060006105c883610b1d565b909155505050506001600160a01b03929092166000908152600260209081526040822060019081018054918201815583529120015550630a85bd0160e11b919050565b3360009081526002602052604090206001015461063a5760405162461bcd60e51b81526004016102ad90610ac8565b60008281526001602081905260409091209081015442106106915760405162461bcd60e51b815260206004820152601160248201527012539050d512559157d41493d413d4d053607a1b60448201526064016102ad565b33600090815260058201602052604090205460ff16156106e35760405162461bcd60e51b815260206004820152600d60248201526c1053149150511657d593d51151609a1b60448201526064016102ad565b3360009081526005820160209081526040808320805460ff191660019081179091556002909252822001549083600181111561072f57634e487b7160e01b600052602160045260246000fd5b141561075457808260020160008282546107499190610aee565b9091555061076e9050565b808260030160008282546107689190610aee565b90915550505b50505050565b336000908152600260205260409020600101546107a35760405162461bcd60e51b81526004016102ad90610ac8565b3360009081526002602052604090208054603c906107c19042610b06565b116108065760405162461bcd60e51b815260206004820152601560248201527413525397d3515350915494d2125417d411549253d1605a1b60448201526064016102ad565b60018101546005805460009061081d908490610b06565b90915550600090505b600182015481101561090d5760008054906101000a90046001600160a01b03166001600160a01b031663b88d4fde303385600101858154811061087957634e487b7160e01b600052603260045260246000fd5b60009182526020822001546040516001600160e01b031960e087901b1681526001600160a01b039485166004820152939092166024840152604483019190915260806064830152608482015260a401600060405180830381600087803b1580156108e257600080fd5b505af11580156108f6573d6000803e3d6000fd5b50505050808061090590610b1d565b915050610826565b503360009081526002602052604081208181559061092e6001830182610933565b505050565b50805460008255906000526020600020908101906109519190610954565b50565b5b808211156109695760008155600101610955565b5090565b60006020828403121561097e578081fd5b813561031481610b64565b60006020828403121561099a578081fd5b815161031481610b64565b600080600080608085870312156109ba578283fd5b84356109c581610b64565b935060208501356109d581610b64565b925060408501359150606085013567ffffffffffffffff808211156109f8578283fd5b818701915087601f830112610a0b578283fd5b813581811115610a1d57610a1d610b4e565b604051601f8201601f19908116603f01168101908382118183101715610a4557610a45610b4e565b816040528281528a6020848701011115610a5d578586fd5b82602086016020830137918201602001949094529598949750929550505050565b600060208284031215610a8f578081fd5b5035919050565b60008060408385031215610aa8578182fd5b82359150602083013560028110610abd578182fd5b809150509250929050565b6020808252600c908201526b2727aa2fa0afa6a2a6a122a960a11b604082015260600190565b60008219821115610b0157610b01610b38565b500190565b600082821015610b1857610b18610b38565b500390565b6000600019821415610b3157610b31610b38565b5060010190565b634e487b7160e01b600052601160045260246000fd5b634e487b7160e01b600052604160045260246000fd5b6001600160a01b038116811461095157600080fdfea2646970667358221220c04141ba692cbf9257a8de1ac0b91649dc2398393eda2c1bf8bd372ae217ec3d64736f6c63430008040033",
    "linkReferences": {},
    "deployedLinkReferences": {}
}