{
  "_format": "hh-sol-artifact-1",
  "contractName": "PaperHands",
  "sourceName": "contracts/Paperhands.sol",
  "abi": [
    {
      "inputs": [
        {
          "internalType": "string",
          "name": "_name",
          "type": "string"
        },
        {
          "internalType": "string",
          "name": "_symbol",
          "type": "string"
        },
        {
          "internalType": "contract ISuperfluid",
          "name": "host",
          "type": "address"
        },
        {
          "internalType": "contract IConstantFlowAgreementV1",
          "name": "cfa",
          "type": "address"
        },
        {
          "internalType": "contract ISuperToken",
          "name": "acceptedToken",
          "type": "address"
        }
      ],
      "stateMutability": "nonpayable",
      "type": "constructor"
    },
    {
      "anonymous": false,
      "inputs": [
        {
          "indexed": true,
          "internalType": "address",
          "name": "owner",
          "type": "address"
        },
        {
          "indexed": true,
          "internalType": "address",
          "name": "approved",
          "type": "address"
        },
        {
          "indexed": true,
          "internalType": "uint256",
          "name": "tokenId",
          "type": "uint256"
        }
      ],
      "name": "Approval",
      "type": "event"
    },
    {
      "anonymous": false,
      "inputs": [
        {
          "indexed": true,
          "internalType": "address",
          "name": "owner",
          "type": "address"
        },
        {
          "indexed": true,
          "internalType": "address",
          "name": "operator",
          "type": "address"
        },
        {
          "indexed": false,
          "internalType": "bool",
          "name": "approved",
          "type": "bool"
        }
      ],
      "name": "ApprovalForAll",
      "type": "event"
    },
    {
      "anonymous": false,
      "inputs": [
        {
          "indexed": false,
          "internalType": "uint256",
          "name": "tokenId",
          "type": "uint256"
        },
        {
          "indexed": false,
          "internalType": "address",
          "name": "receiver",
          "type": "address"
        },
        {
          "indexed": false,
          "internalType": "uint256",
          "name": "timeStampValue",
          "type": "uint256"
        }
      ],
      "name": "NFTMinted",
      "type": "event"
    },
    {
      "anonymous": false,
      "inputs": [
        {
          "indexed": true,
          "internalType": "address",
          "name": "previousOwner",
          "type": "address"
        },
        {
          "indexed": true,
          "internalType": "address",
          "name": "newOwner",
          "type": "address"
        }
      ],
      "name": "OwnershipTransferred",
      "type": "event"
    },
    {
      "anonymous": false,
      "inputs": [
        {
          "indexed": true,
          "internalType": "address",
          "name": "from",
          "type": "address"
        },
        {
          "indexed": true,
          "internalType": "address",
          "name": "to",
          "type": "address"
        },
        {
          "indexed": true,
          "internalType": "uint256",
          "name": "tokenId",
          "type": "uint256"
        }
      ],
      "name": "Transfer",
      "type": "event"
    },
    {
      "anonymous": false,
      "inputs": [
        {
          "indexed": false,
          "internalType": "uint256",
          "name": "tokenId",
          "type": "uint256"
        },
        {
          "indexed": false,
          "internalType": "address",
          "name": "receiver",
          "type": "address"
        },
        {
          "indexed": false,
          "internalType": "int96",
          "name": "flow",
          "type": "int96"
        }
      ],
      "name": "tokenBurned",
      "type": "event"
    },
    {
      "inputs": [],
      "name": "_acceptedToken",
      "outputs": [
        {
          "internalType": "contract ISuperToken",
          "name": "",
          "type": "address"
        }
      ],
      "stateMutability": "view",
      "type": "function"
    },
    {
      "inputs": [
        {
          "internalType": "address",
          "name": "to",
          "type": "address"
        },
        {
          "internalType": "uint256",
          "name": "tokenId",
          "type": "uint256"
        }
      ],
      "name": "approve",
      "outputs": [],
      "stateMutability": "nonpayable",
      "type": "function"
    },
    {
      "inputs": [
        {
          "internalType": "address",
          "name": "owner",
          "type": "address"
        }
      ],
      "name": "balanceOf",
      "outputs": [
        {
          "internalType": "uint256",
          "name": "",
          "type": "uint256"
        }
      ],
      "stateMutability": "view",
      "type": "function"
    },
    {
      "inputs": [
        {
          "internalType": "uint256",
          "name": "tokenId",
          "type": "uint256"
        }
      ],
      "name": "burnNFT",
      "outputs": [],
      "stateMutability": "nonpayable",
      "type": "function"
    },
    {
      "inputs": [
        {
          "internalType": "uint256",
          "name": "_newmaxSupplyAmount",
          "type": "uint256"
        }
      ],
      "name": "changeMaxSupply",
      "outputs": [],
      "stateMutability": "nonpayable",
      "type": "function"
    },
    {
      "inputs": [],
      "name": "cost",
      "outputs": [
        {
          "internalType": "uint256",
          "name": "",
          "type": "uint256"
        }
      ],
      "stateMutability": "view",
      "type": "function"
    },
    {
      "inputs": [
        {
          "internalType": "address",
          "name": "receiver",
          "type": "address"
        }
      ],
      "name": "daoMintNFT",
      "outputs": [],
      "stateMutability": "nonpayable",
      "type": "function"
    },
    {
      "inputs": [
        {
          "internalType": "uint256",
          "name": "",
          "type": "uint256"
        }
      ],
      "name": "flowRates",
      "outputs": [
        {
          "internalType": "int96",
          "name": "",
          "type": "int96"
        }
      ],
      "stateMutability": "view",
      "type": "function"
    },
    {
      "inputs": [
        {
          "internalType": "uint256",
          "name": "tokenId",
          "type": "uint256"
        }
      ],
      "name": "getApproved",
      "outputs": [
        {
          "internalType": "address",
          "name": "",
          "type": "address"
        }
      ],
      "stateMutability": "view",
      "type": "function"
    },
    {
      "inputs": [
        {
          "internalType": "address",
          "name": "owner",
          "type": "address"
        },
        {
          "internalType": "address",
          "name": "operator",
          "type": "address"
        }
      ],
      "name": "isApprovedForAll",
      "outputs": [
        {
          "internalType": "bool",
          "name": "",
          "type": "bool"
        }
      ],
      "stateMutability": "view",
      "type": "function"
    },
    {
      "inputs": [],
      "name": "maxSupply",
      "outputs": [
        {
          "internalType": "uint256",
          "name": "",
          "type": "uint256"
        }
      ],
      "stateMutability": "view",
      "type": "function"
    },
    {
      "inputs": [
        {
          "internalType": "address",
          "name": "receiver",
          "type": "address"
        }
      ],
      "name": "mintNFT",
      "outputs": [],
      "stateMutability": "payable",
      "type": "function"
    },
    {
      "inputs": [],
      "name": "name",
      "outputs": [
        {
          "internalType": "string",
          "name": "",
          "type": "string"
        }
      ],
      "stateMutability": "view",
      "type": "function"
    },
    {
      "inputs": [],
      "name": "nextId",
      "outputs": [
        {
          "internalType": "uint256",
          "name": "",
          "type": "uint256"
        }
      ],
      "stateMutability": "view",
      "type": "function"
    },
    {
      "inputs": [],
      "name": "nftBaseURI",
      "outputs": [
        {
          "internalType": "string",
          "name": "",
          "type": "string"
        }
      ],
      "stateMutability": "view",
      "type": "function"
    },
    {
      "inputs": [],
      "name": "owner",
      "outputs": [
        {
          "internalType": "address",
          "name": "",
          "type": "address"
        }
      ],
      "stateMutability": "view",
      "type": "function"
    },
    {
      "inputs": [
        {
          "internalType": "uint256",
          "name": "tokenId",
          "type": "uint256"
        }
      ],
      "name": "ownerOf",
      "outputs": [
        {
          "internalType": "address",
          "name": "",
          "type": "address"
        }
      ],
      "stateMutability": "view",
      "type": "function"
    },
    {
      "inputs": [
        {
          "internalType": "bool",
          "name": "_state",
          "type": "bool"
        }
      ],
      "name": "pause",
      "outputs": [],
      "stateMutability": "nonpayable",
      "type": "function"
    },
    {
      "inputs": [],
      "name": "paused",
      "outputs": [
        {
          "internalType": "bool",
          "name": "",
          "type": "bool"
        }
      ],
      "stateMutability": "view",
      "type": "function"
    },
    {
      "inputs": [],
      "name": "renounceOwnership",
      "outputs": [],
      "stateMutability": "nonpayable",
      "type": "function"
    },
    {
      "inputs": [
        {
          "internalType": "address",
          "name": "from",
          "type": "address"
        },
        {
          "internalType": "address",
          "name": "to",
          "type": "address"
        },
        {
          "internalType": "uint256",
          "name": "tokenId",
          "type": "uint256"
        }
      ],
      "name": "safeTransferFrom",
      "outputs": [],
      "stateMutability": "nonpayable",
      "type": "function"
    },
    {
      "inputs": [
        {
          "internalType": "address",
          "name": "from",
          "type": "address"
        },
        {
          "internalType": "address",
          "name": "to",
          "type": "address"
        },
        {
          "internalType": "uint256",
          "name": "tokenId",
          "type": "uint256"
        },
        {
          "internalType": "bytes",
          "name": "_data",
          "type": "bytes"
        }
      ],
      "name": "safeTransferFrom",
      "outputs": [],
      "stateMutability": "nonpayable",
      "type": "function"
    },
    {
      "inputs": [
        {
          "internalType": "address",
          "name": "operator",
          "type": "address"
        },
        {
          "internalType": "bool",
          "name": "approved",
          "type": "bool"
        }
      ],
      "name": "setApprovalForAll",
      "outputs": [],
      "stateMutability": "nonpayable",
      "type": "function"
    },
    {
      "inputs": [
        {
          "internalType": "uint256",
          "name": "_newCost",
          "type": "uint256"
        }
      ],
      "name": "setCost",
      "outputs": [],
      "stateMutability": "nonpayable",
      "type": "function"
    },
    {
      "inputs": [
        {
          "internalType": "string",
          "name": "_nftBaseURI",
          "type": "string"
        }
      ],
      "name": "setNFTBaseURI",
      "outputs": [],
      "stateMutability": "nonpayable",
      "type": "function"
    },
    {
      "inputs": [
        {
          "internalType": "bytes4",
          "name": "interfaceId",
          "type": "bytes4"
        }
      ],
      "name": "supportsInterface",
      "outputs": [
        {
          "internalType": "bool",
          "name": "",
          "type": "bool"
        }
      ],
      "stateMutability": "view",
      "type": "function"
    },
    {
      "inputs": [],
      "name": "symbol",
      "outputs": [
        {
          "internalType": "string",
          "name": "",
          "type": "string"
        }
      ],
      "stateMutability": "view",
      "type": "function"
    },
    {
      "inputs": [],
      "name": "timeStampValue",
      "outputs": [
        {
          "internalType": "int96",
          "name": "",
          "type": "int96"
        }
      ],
      "stateMutability": "view",
      "type": "function"
    },
    {
      "inputs": [
        {
          "internalType": "uint256",
          "name": "",
          "type": "uint256"
        }
      ],
      "name": "tokenTimestamp",
      "outputs": [
        {
          "internalType": "uint256",
          "name": "",
          "type": "uint256"
        }
      ],
      "stateMutability": "view",
      "type": "function"
    },
    {
      "inputs": [
        {
          "internalType": "uint256",
          "name": "tokenId",
          "type": "uint256"
        }
      ],
      "name": "tokenURI",
      "outputs": [
        {
          "internalType": "string",
          "name": "",
          "type": "string"
        }
      ],
      "stateMutability": "view",
      "type": "function"
    },
    {
      "inputs": [
        {
          "internalType": "address",
          "name": "from",
          "type": "address"
        },
        {
          "internalType": "address",
          "name": "to",
          "type": "address"
        },
        {
          "internalType": "uint256",
          "name": "tokenId",
          "type": "uint256"
        }
      ],
      "name": "transferFrom",
      "outputs": [],
      "stateMutability": "nonpayable",
      "type": "function"
    },
    {
      "inputs": [
        {
          "internalType": "address",
          "name": "newOwner",
          "type": "address"
        }
      ],
      "name": "transferOwnership",
      "outputs": [],
      "stateMutability": "nonpayable",
      "type": "function"
    },
    {
      "inputs": [],
      "name": "withdraw",
      "outputs": [],
      "stateMutability": "payable",
      "type": "function"
    },
    {
      "inputs": [
        {
          "internalType": "contract IERC20",
          "name": "token",
          "type": "address"
        }
      ],
      "name": "withdrawToken",
      "outputs": [],
      "stateMutability": "nonpayable",
      "type": "function"
    }
  ],
  "bytecode": "0x6000600c556064600d5561010060405260586080818152906200281360a03980516200003491601091602090910190620001c5565b506011805460ff191690553480156200004c57600080fd5b506040516200286b3803806200286b8339810160408190526200006f916200031e565b84518590859062000088906000906020850190620001c5565b5080516200009e906001906020840190620001c5565b505050620000bb620000b56200016f60201b60201c565b62000173565b600780546001600160a01b038086166001600160a01b031992831681179093556008805486831690841617905560098054918516919092161790556000600e556200011657634e487b7160e01b600052600160045260246000fd5b6008546001600160a01b03166200013d57634e487b7160e01b600052600160045260246000fd5b6009546001600160a01b03166200016457634e487b7160e01b600052600160045260246000fd5b505050505062000433565b3390565b600680546001600160a01b038381166001600160a01b0319831681179093556040519116919082907f8be0079c531659141344cd1fd0a4f28419497f9722a3daafe3b4186f6b6457e090600090a35050565b828054620001d390620003c7565b90600052602060002090601f016020900481019282620001f7576000855562000242565b82601f106200021257805160ff191683800117855562000242565b8280016001018555821562000242579182015b828111156200024257825182559160200191906001019062000225565b506200025092915062000254565b5090565b5b8082111562000250576000815560010162000255565b600082601f8301126200027c578081fd5b81516001600160401b038082111562000299576200029962000404565b604051601f8301601f19908116603f01168101908282118183101715620002c457620002c462000404565b81604052838152602092508683858801011115620002e0578485fd5b8491505b83821015620003035785820183015181830184015290820190620002e4565b838211156200031457848385830101525b9695505050505050565b600080600080600060a0868803121562000336578081fd5b85516001600160401b03808211156200034d578283fd5b6200035b89838a016200026b565b9650602088015191508082111562000371578283fd5b5062000380888289016200026b565b945050604086015162000393816200041a565b6060870151909350620003a6816200041a565b6080870151909250620003b9816200041a565b809150509295509295909350565b600181811c90821680620003dc57607f821691505b60208210811415620003fe57634e487b7160e01b600052602260045260246000fd5b50919050565b634e487b7160e01b600052604160045260246000fd5b6001600160a01b03811681146200043057600080fd5b50565b6123d080620004436000396000f3fe6080604052600436106101f95760003560e01c80636352211e1161010d578063b88d4fde116100a0578063db8116b71161006f578063db8116b71461059f578063e985e9c5146105b4578063eeddb656146105fd578063f2fde38b1461062a578063f545c3881461064a57600080fd5b8063b88d4fde14610529578063c87b56dd14610549578063d5abeb0114610569578063daa886b11461057f57600080fd5b806389476069116100dc57806389476069146104b65780638da5cb5b146104d657806395d89b41146104f4578063a22cb4651461050957600080fd5b80636352211e1461041e57806370a082311461043e578063715018a61461045e57806379bcb8df1461047357600080fd5b80632890e0d71161019057806344a0d68a1161015f57806344a0d68a1461039b5780634e5b3c7c146103bb57806354ba0f27146103db5780635c975abb146103ee57806361b8ce8c1461040857600080fd5b80632890e0d7146103335780633ccfd60b14610353578063404c7cdd1461035b57806342842e0e1461037b57600080fd5b8063095ea7b3116101cc578063095ea7b3146102af57806313faede6146102cf5780631c77fab5146102f357806323b872dd1461031357600080fd5b806301ffc9a7146101fe57806302329a291461023357806306fdde0314610255578063081812fc14610277575b600080fd5b34801561020a57600080fd5b5061021e610219366004611e9d565b610664565b60405190151581526020015b60405180910390f35b34801561023f57600080fd5b5061025361024e366004611e65565b6106b6565b005b34801561026157600080fd5b5061026a6106fc565b60405161022a91906120c0565b34801561028357600080fd5b50610297610292366004611f8e565b61078e565b6040516001600160a01b03909116815260200161022a565b3480156102bb57600080fd5b506102536102ca366004611e3a565b610823565b3480156102db57600080fd5b506102e5600c5481565b60405190815260200161022a565b3480156102ff57600080fd5b5061025361030e366004611cfc565b610939565b34801561031f57600080fd5b5061025361032e366004611d50565b610945565b34801561033f57600080fd5b5061025361034e366004611f8e565b610976565b610253610b48565b34801561036757600080fd5b50610253610376366004611f8e565b610bc7565b34801561038757600080fd5b50610253610396366004611d50565b610bf6565b3480156103a757600080fd5b506102536103b6366004611f8e565b610c11565b3480156103c757600080fd5b50600954610297906001600160a01b031681565b6102536103e9366004611cfc565b610c40565b3480156103fa57600080fd5b5060115461021e9060ff1681565b34801561041457600080fd5b506102e5600e5481565b34801561042a57600080fd5b50610297610439366004611f8e565b610d69565b34801561044a57600080fd5b506102e5610459366004611cfc565b610de0565b34801561046a57600080fd5b50610253610e67565b34801561047f57600080fd5b506104a361048e366004611f8e565b600a60205260009081526040902054600b0b81565b604051600b9190910b815260200161022a565b3480156104c257600080fd5b506102536104d1366004611cfc565b610e9d565b3480156104e257600080fd5b506006546001600160a01b0316610297565b34801561050057600080fd5b5061026a611007565b34801561051557600080fd5b50610253610524366004611e0d565b611016565b34801561053557600080fd5b50610253610544366004611d90565b611025565b34801561055557600080fd5b5061026a610564366004611f8e565b61105d565b34801561057557600080fd5b506102e5600d5481565b34801561058b57600080fd5b5061025361059a366004611f48565b61112e565b3480156105ab57600080fd5b5061026a61116b565b3480156105c057600080fd5b5061021e6105cf366004611d18565b6001600160a01b03918216600090815260056020908152604080832093909416825291909152205460ff1690565b34801561060957600080fd5b506102e5610618366004611f8e565b600b6020526000908152604090205481565b34801561063657600080fd5b50610253610645366004611cfc565b6111f9565b34801561065657600080fd5b50600f546104a390600b0b81565b60006001600160e01b031982166380ac58cd60e01b148061069557506001600160e01b03198216635b5e139f60e01b145b806106b057506301ffc9a760e01b6001600160e01b03198316145b92915050565b6006546001600160a01b031633146106e95760405162461bcd60e51b81526004016106e090612125565b60405180910390fd5b6011805460ff1916911515919091179055565b60606000805461070b906122fa565b80601f0160208091040260200160405190810160405280929190818152602001828054610737906122fa565b80156107845780601f1061075957610100808354040283529160200191610784565b820191906000526020600020905b81548152906001019060200180831161076757829003601f168201915b5050505050905090565b6000818152600260205260408120546001600160a01b03166108075760405162461bcd60e51b815260206004820152602c60248201527f4552433732313a20617070726f76656420717565727920666f72206e6f6e657860448201526b34b9ba32b73a103a37b5b2b760a11b60648201526084016106e0565b506000908152600460205260409020546001600160a01b031690565b600061082e82610d69565b9050806001600160a01b0316836001600160a01b0316141561089c5760405162461bcd60e51b815260206004820152602160248201527f4552433732313a20617070726f76616c20746f2063757272656e74206f776e656044820152603960f91b60648201526084016106e0565b336001600160a01b03821614806108b857506108b881336105cf565b61092a5760405162461bcd60e51b815260206004820152603860248201527f4552433732313a20617070726f76652063616c6c6572206973206e6f74206f7760448201527f6e6572206e6f7220617070726f76656420666f7220616c6c000000000000000060648201526084016106e0565b6109348383611291565b505050565b610942816112ff565b50565b61094f3382611437565b61096b5760405162461bcd60e51b81526004016106e09061215a565b61093483838361152e565b6006546001600160a01b031633146109a05760405162461bcd60e51b81526004016106e090612125565b60008181526002602052604090205481906001600160a01b0316610a145760405162461bcd60e51b815260206004820152602560248201527f746f6b656e20646f65736e2774206578697374206f7220686173206265656e20604482015264189d5c9b9d60da1b60648201526084016106e0565b6000610a1f83610d69565b6000848152600b6020526040812054919250610a3b82426122b7565b600f8054600b83810b6bffffffffffffffffffffffff166001600160601b031990921691909117918290559192508291600091610a7d910b6316fee0e561221c565b6000888152600a6020526040902080546001600160601b0319166bffffffffffffffffffffffff600b84900b161790559050610ab8876116ca565b610ac28582611765565b6000878152600a60205260409081902080546001600160601b03191690819055600e5491517f39b9a8511e5fcc2fadf42c119f2e82ea27be29553ee911a88b9293a5e92c1ac092610b379290918991600b0b909283526001600160a01b03919091166020830152600b0b604082015260600190565b60405180910390a150505050505050565b6006546001600160a01b03163314610b725760405162461bcd60e51b81526004016106e090612125565b604051600090339047908381818185875af1925050503d8060008114610bb4576040519150601f19603f3d011682016040523d82523d6000602084013e610bb9565b606091505b505090508061094257600080fd5b6006546001600160a01b03163314610bf15760405162461bcd60e51b81526004016106e090612125565b600d55565b61093483838360405180602001604052806000815250611025565b6006546001600160a01b03163314610c3b5760405162461bcd60e51b81526004016106e090612125565b600c55565b60115460ff1615610c8c5760405162461bcd60e51b81526020600482015260166024820152751d1a194818dbdb9d1c9858dd081a5cc81c185d5cd95960521b60448201526064016106e0565b33301415610cd55760405162461bcd60e51b8152602060048201526016602482015275497373756520746f2061206e6577206164647265737360501b60448201526064016106e0565b600d54600e541115610d225760405162461bcd60e51b81526020600482015260166024820152751b585e08139195081b1a5b5a5d08195e18d95959195960521b60448201526064016106e0565b600c543410156109395760405162461bcd60e51b8152602060048201526012602482015271696e73756666696369656e742066756e647360701b60448201526064016106e0565b6000818152600260205260408120546001600160a01b0316806106b05760405162461bcd60e51b815260206004820152602960248201527f4552433732313a206f776e657220717565727920666f72206e6f6e657869737460448201526832b73a103a37b5b2b760b91b60648201526084016106e0565b60006001600160a01b038216610e4b5760405162461bcd60e51b815260206004820152602a60248201527f4552433732313a2062616c616e636520717565727920666f7220746865207a65604482015269726f206164647265737360b01b60648201526084016106e0565b506001600160a01b031660009081526003602052604090205490565b6006546001600160a01b03163314610e915760405162461bcd60e51b81526004016106e090612125565b610e9b6000611873565b565b6006546001600160a01b03163314610ec75760405162461bcd60e51b81526004016106e090612125565b6040516370a0823160e01b81523060048201526001600160a01b0382169063a9059cbb90339083906370a082319060240160206040518083038186803b158015610f1057600080fd5b505afa158015610f24573d6000803e3d6000fd5b505050506040513d601f19601f82011682018060405250810190610f489190611fa6565b6040516001600160e01b031960e085901b1681526001600160a01b0390921660048301526024820152604401602060405180830381600087803b158015610f8e57600080fd5b505af1158015610fa2573d6000803e3d6000fd5b505050506040513d601f19601f82011682018060405250810190610fc69190611e81565b6109425760405162461bcd60e51b81526020600482015260126024820152712ab730b13632903a37903a3930b739b332b960711b60448201526064016106e0565b60606001805461070b906122fa565b6110213383836118c5565b5050565b61102f3383611437565b61104b5760405162461bcd60e51b81526004016106e09061215a565b61105784848484611994565b50505050565b6000818152600260205260409020546060906001600160a01b03166110dc5760405162461bcd60e51b815260206004820152602f60248201527f4552433732314d657461646174613a2055524920717565727920666f72206e6f60448201526e3732bc34b9ba32b73a103a37b5b2b760891b60648201526084016106e0565b60006110e66119c7565b905060008151116111065760405180602001604052806000815250611127565b806040516020016111179190611fea565b6040516020818303038152906040525b9392505050565b6006546001600160a01b031633146111585760405162461bcd60e51b81526004016106e090612125565b8051611021906010906020840190611c25565b60108054611178906122fa565b80601f01602080910402602001604051908101604052809291908181526020018280546111a4906122fa565b80156111f15780601f106111c6576101008083540402835291602001916111f1565b820191906000526020600020905b8154815290600101906020018083116111d457829003601f168201915b505050505081565b6006546001600160a01b031633146112235760405162461bcd60e51b81526004016106e090612125565b6001600160a01b0381166112885760405162461bcd60e51b815260206004820152602660248201527f4f776e61626c653a206e6577206f776e657220697320746865207a65726f206160448201526564647265737360d01b60648201526084016106e0565b61094281611873565b600081815260046020526040902080546001600160a01b0319166001600160a01b03841690811790915581906112c682610d69565b6001600160a01b03167f8c5be1e5ebec7d5bd14f71427d1e84f3dd0314c0f7b2291e5b200ac8c7c3b92560405160405180910390a45050565b60115460ff161561134b5760405162461bcd60e51b81526020600482015260166024820152751d1a194818dbdb9d1c9858dd081a5cc81c185d5cd95960521b60448201526064016106e0565b6001600160a01b03811630141561139d5760405162461bcd60e51b8152602060048201526016602482015275497373756520746f2061206e6577206164647265737360501b60448201526064016106e0565b600e80546000908152600b60205260408082204290559154808252908290205491517f055e34067993de700e7f718f190fdccc92a27695bb9068504a1a44258577f8eb9261140892918591909283526001600160a01b03919091166020830152604082015260600190565b60405180910390a161141c81600e546119d6565b6001600e600082825461142f9190612204565b909155505050565b6000818152600260205260408120546001600160a01b03166114b05760405162461bcd60e51b815260206004820152602c60248201527f4552433732313a206f70657261746f7220717565727920666f72206e6f6e657860448201526b34b9ba32b73a103a37b5b2b760a11b60648201526084016106e0565b60006114bb83610d69565b9050806001600160a01b0316846001600160a01b031614806114f65750836001600160a01b03166114eb8461078e565b6001600160a01b0316145b8061152657506001600160a01b0380821660009081526005602090815260408083209388168352929052205460ff165b949350505050565b826001600160a01b031661154182610d69565b6001600160a01b0316146115a55760405162461bcd60e51b815260206004820152602560248201527f4552433732313a207472616e736665722066726f6d20696e636f72726563742060448201526437bbb732b960d91b60648201526084016106e0565b6001600160a01b0382166116075760405162461bcd60e51b8152602060048201526024808201527f4552433732313a207472616e7366657220746f20746865207a65726f206164646044820152637265737360e01b60648201526084016106e0565b611612600082611291565b6001600160a01b038316600090815260036020526040812080546001929061163b9084906122b7565b90915550506001600160a01b0382166000908152600360205260408120805460019290611669908490612204565b909155505060008181526002602052604080822080546001600160a01b0319166001600160a01b0386811691821790925591518493918716917fddf252ad1be2c89b69c2b068fc378daa952ba7f163c4a11628f55a4df523b3ef91a4505050565b60006116d582610d69565b90506116e2600083611291565b6001600160a01b038116600090815260036020526040812080546001929061170b9084906122b7565b909155505060008281526002602052604080822080546001600160a01b0319169055518391906001600160a01b038416907fddf252ad1be2c89b69c2b068fc378daa952ba7f163c4a11628f55a4df523b3ef908390a45050565b6001600160a01b03821630148061178357506001600160a01b038216155b1561178c575050565b6007546008546009546040805160008152602081019091526001600160a01b03938416936339255d5b9381169263317e182f60e11b926117d79290911690889088906044810161208a565b60408051601f198184030181529181526020820180516001600160e01b03166001600160e01b03199485161790525160e085901b909216825261181d9291600401612043565b600060405180830381600087803b15801561183757600080fd5b505af115801561184b573d6000803e3d6000fd5b505050506040513d6000823e601f3d908101601f191682016040526109349190810190611ed5565b600680546001600160a01b038381166001600160a01b0319831681179093556040519116919082907f8be0079c531659141344cd1fd0a4f28419497f9722a3daafe3b4186f6b6457e090600090a35050565b816001600160a01b0316836001600160a01b031614156119275760405162461bcd60e51b815260206004820152601960248201527f4552433732313a20617070726f766520746f2063616c6c65720000000000000060448201526064016106e0565b6001600160a01b03838116600081815260056020908152604080832094871680845294825291829020805460ff191686151590811790915591519182527f17307eab39ab6107e8899845ad3d59bd9653f200f220920489ca2b5937696c31910160405180910390a3505050565b61199f84848461152e565b6119ab84848484611b18565b6110575760405162461bcd60e51b81526004016106e0906120d3565b60606010805461070b906122fa565b6001600160a01b038216611a2c5760405162461bcd60e51b815260206004820181905260248201527f4552433732313a206d696e7420746f20746865207a65726f206164647265737360448201526064016106e0565b6000818152600260205260409020546001600160a01b031615611a915760405162461bcd60e51b815260206004820152601c60248201527f4552433732313a20746f6b656e20616c7265616479206d696e7465640000000060448201526064016106e0565b6001600160a01b0382166000908152600360205260408120805460019290611aba908490612204565b909155505060008181526002602052604080822080546001600160a01b0319166001600160a01b03861690811790915590518392907fddf252ad1be2c89b69c2b068fc378daa952ba7f163c4a11628f55a4df523b3ef908290a45050565b60006001600160a01b0384163b15611c1a57604051630a85bd0160e11b81526001600160a01b0385169063150b7a0290611b5c903390899088908890600401612006565b602060405180830381600087803b158015611b7657600080fd5b505af1925050508015611ba6575060408051601f3d908101601f19168201909252611ba391810190611eb9565b60015b611c00573d808015611bd4576040519150601f19603f3d011682016040523d82523d6000602084013e611bd9565b606091505b508051611bf85760405162461bcd60e51b81526004016106e0906120d3565b805181602001fd5b6001600160e01b031916630a85bd0160e11b149050611526565b506001949350505050565b828054611c31906122fa565b90600052602060002090601f016020900481019282611c535760008555611c99565b82601f10611c6c57805160ff1916838001178555611c99565b82800160010185558215611c99579182015b82811115611c99578251825591602001919060010190611c7e565b50611ca5929150611ca9565b5090565b5b80821115611ca55760008155600101611caa565b6000611cd1611ccc846121dc565b6121ab565b9050828152838383011115611ce557600080fd5b828260208301376000602084830101529392505050565b600060208284031215611d0d578081fd5b813561112781612361565b60008060408385031215611d2a578081fd5b8235611d3581612361565b91506020830135611d4581612361565b809150509250929050565b600080600060608486031215611d64578081fd5b8335611d6f81612361565b92506020840135611d7f81612361565b929592945050506040919091013590565b60008060008060808587031215611da5578081fd5b8435611db081612361565b93506020850135611dc081612361565b925060408501359150606085013567ffffffffffffffff811115611de2578182fd5b8501601f81018713611df2578182fd5b611e0187823560208401611cbe565b91505092959194509250565b60008060408385031215611e1f578182fd5b8235611e2a81612361565b91506020830135611d4581612376565b60008060408385031215611e4c578182fd5b8235611e5781612361565b946020939093013593505050565b600060208284031215611e76578081fd5b813561112781612376565b600060208284031215611e92578081fd5b815161112781612376565b600060208284031215611eae578081fd5b813561112781612384565b600060208284031215611eca578081fd5b815161112781612384565b600060208284031215611ee6578081fd5b815167ffffffffffffffff811115611efc578182fd5b8201601f81018413611f0c578182fd5b8051611f1a611ccc826121dc565b818152856020838501011115611f2e578384fd5b611f3f8260208301602086016122ce565b95945050505050565b600060208284031215611f59578081fd5b813567ffffffffffffffff811115611f6f578182fd5b8201601f81018413611f7f578182fd5b61152684823560208401611cbe565b600060208284031215611f9f578081fd5b5035919050565b600060208284031215611fb7578081fd5b5051919050565b60008151808452611fd68160208601602086016122ce565b601f01601f19169290920160200192915050565b60008251611ffc8184602087016122ce565b9190910192915050565b6001600160a01b038581168252841660208201526040810183905260806060820181905260009061203990830184611fbe565b9695505050505050565b6001600160a01b038316815260606020820181905260009061206790830184611fbe565b8281036040938401526002815261060f60f31b6020820152919091019392505050565b6001600160a01b03858116825284166020820152600b83900b604082015260806060820181905260009061203990830184611fbe565b6020815260006111276020830184611fbe565b60208082526032908201527f4552433732313a207472616e7366657220746f206e6f6e20455243373231526560408201527131b2b4bb32b91034b6b83632b6b2b73a32b960711b606082015260800190565b6020808252818101527f4f776e61626c653a2063616c6c6572206973206e6f7420746865206f776e6572604082015260600190565b60208082526031908201527f4552433732313a207472616e736665722063616c6c6572206973206e6f74206f6040820152701ddb995c881b9bdc88185c1c1c9bdd9959607a1b606082015260800190565b604051601f8201601f1916810167ffffffffffffffff811182821017156121d4576121d461234b565b604052919050565b600067ffffffffffffffff8211156121f6576121f661234b565b50601f01601f191660200190565b6000821982111561221757612217612335565b500190565b600081600b0b83600b0b6b7fffffffffffffffffffffff8382138484138383048511828216161561224f5761224f612335565b6b7fffffffffffffffffffffff198685128281168783058712161561227657612276612335565b87871292508582058712848416161561229157612291612335565b858505871281841616156122a7576122a7612335565b5050509290910295945050505050565b6000828210156122c9576122c9612335565b500390565b60005b838110156122e95781810151838201526020016122d1565b838111156110575750506000910152565b600181811c9082168061230e57607f821691505b6020821081141561232f57634e487b7160e01b600052602260045260246000fd5b50919050565b634e487b7160e01b600052601160045260246000fd5b634e487b7160e01b600052604160045260246000fd5b6001600160a01b038116811461094257600080fd5b801515811461094257600080fd5b6001600160e01b03198116811461094257600080fdfea2646970667358221220dfd0297500e7ffd6476fde491e0110ddd82f080a4f0f83b2fe3664ea81c8e8ec64736f6c6343000804003368747470733a2f2f6e666265657a2e6d7970696e6174612e636c6f75642f697066732f516d55564857797168544275344a4c62546337506463377677756d484857424b65584653386f707277574432456d2f312e6a736f6e",
  "linkReferences": {},
  "deployedLinkReferences": {}
}